{
  "_format": "hh-sol-artifact-1",
  "contractName": "MemeForest",
  "sourceName": "contracts/MemeForest.sol",
  "abi": [
    {
      "inputs": [
        {
          "internalType": "string",
          "name": "_name",
          "type": "string"
        },
        {
          "internalType": "string",
          "name": "_date",
          "type": "string"
        }
      ],
      "name": "CreateMembers",
      "outputs": [],
      "stateMutability": "nonpayable",
      "type": "function"
    },
    {
      "inputs": [
        {
          "internalType": "string",
          "name": "memeinfo",
          "type": "string"
        },
        {
          "internalType": "address",
          "name": "_owner",
          "type": "address"
        },
        {
          "internalType": "string",
          "name": "_date",
          "type": "string"
        },
        {
          "internalType": "string",
          "name": "_filetype",
          "type": "string"
        }
      ],
      "name": "CreateMemeItems",
      "outputs": [],
      "stateMutability": "nonpayable",
      "type": "function"
    },
    {
      "inputs": [
        {
          "internalType": "address",
          "name": "_member",
          "type": "address"
        }
      ],
      "name": "GetMemberByAddr",
      "outputs": [
        {
          "components": [
            {
              "internalType": "string",
              "name": "Name",
              "type": "string"
            },
            {
              "internalType": "address",
              "name": "MemeberAddress",
              "type": "address"
            },
            {
              "internalType": "uint256",
              "name": "MyId",
              "type": "uint256"
            },
            {
              "internalType": "uint256",
              "name": "MyMemes",
              "type": "uint256"
            },
            {
              "internalType": "uint256",
              "name": "MyStarredMemes",
              "type": "uint256"
            },
            {
              "internalType": "uint256",
              "name": "MyDeletedMemes",
              "type": "uint256"
            },
            {
              "internalType": "string",
              "name": "Datejoined",
              "type": "string"
            }
          ],
          "internalType": "struct MemeForest.MemeMembers[]",
          "name": "",
          "type": "tuple[]"
        }
      ],
      "stateMutability": "view",
      "type": "function"
    },
    {
      "inputs": [
        {
          "internalType": "address",
          "name": "sender",
          "type": "address"
        }
      ],
      "name": "IsAMember",
      "outputs": [
        {
          "internalType": "bool",
          "name": "",
          "type": "bool"
        }
      ],
      "stateMutability": "view",
      "type": "function"
    },
    {
      "inputs": [
        {
          "internalType": "uint256",
          "name": "_id",
          "type": "uint256"
        }
      ],
      "name": "LikeMeme",
      "outputs": [],
      "stateMutability": "nonpayable",
      "type": "function"
    },
    {
      "inputs": [],
      "name": "NumOfAllMembers",
      "outputs": [
        {
          "internalType": "uint256",
          "name": "_value",
          "type": "uint256"
        }
      ],
      "stateMutability": "view",
      "type": "function"
    },
    {
      "inputs": [],
      "name": "NumOfAllMemes",
      "outputs": [
        {
          "internalType": "uint256",
          "name": "_value",
          "type": "uint256"
        }
      ],
      "stateMutability": "view",
      "type": "function"
    },
    {
      "inputs": [],
      "name": "NumberOfUploads",
      "outputs": [
        {
          "internalType": "uint256",
          "name": "",
          "type": "uint256"
        }
      ],
      "stateMutability": "view",
      "type": "function"
    },
    {
      "inputs": [
        {
          "internalType": "uint256",
          "name": "_id",
          "type": "uint256"
        }
      ],
      "name": "RemoveStarMeme",
      "outputs": [],
      "stateMutability": "nonpayable",
      "type": "function"
    },
    {
      "inputs": [
        {
          "internalType": "uint256",
          "name": "_id",
          "type": "uint256"
        }
      ],
      "name": "StarMeme",
      "outputs": [],
      "stateMutability": "nonpayable",
      "type": "function"
    },
    {
      "inputs": [
        {
          "internalType": "uint256",
          "name": "_id",
          "type": "uint256"
        }
      ],
      "name": "UnLikeMeme",
      "outputs": [],
      "stateMutability": "nonpayable",
      "type": "function"
    },
    {
      "inputs": [
        {
          "internalType": "uint256",
          "name": "_id",
          "type": "uint256"
        },
        {
          "internalType": "address",
          "name": "sender",
          "type": "address"
        }
      ],
      "name": "WhatDidILike",
      "outputs": [
        {
          "internalType": "bool",
          "name": "",
          "type": "bool"
        }
      ],
      "stateMutability": "view",
      "type": "function"
    },
    {
      "inputs": [
        {
          "internalType": "uint256",
          "name": "_id",
          "type": "uint256"
        },
        {
          "internalType": "address",
          "name": "sender",
          "type": "address"
        }
      ],
      "name": "WhatDidIStar",
      "outputs": [
        {
          "internalType": "bool",
          "name": "",
          "type": "bool"
        }
      ],
      "stateMutability": "view",
      "type": "function"
    },
    {
      "inputs": [],
      "name": "fetchAllMemes",
      "outputs": [
        {
          "components": [
            {
              "internalType": "string",
              "name": "Memeinfo",
              "type": "string"
            },
            {
              "internalType": "address",
              "name": "Owner",
              "type": "address"
            },
            {
              "internalType": "uint256",
              "name": "fileId",
              "type": "uint256"
            },
            {
              "internalType": "bool",
              "name": "starred",
              "type": "bool"
            },
            {
              "internalType": "uint256",
              "name": "Stars",
              "type": "uint256"
            },
            {
              "internalType": "uint256",
              "name": "Likes",
              "type": "uint256"
            },
            {
              "internalType": "string",
              "name": "DateOfCreation",
              "type": "string"
            },
            {
              "internalType": "string",
              "name": "FileType",
              "type": "string"
            }
          ],
          "internalType": "struct MemeForest.MemeFiles[]",
          "name": "",
          "type": "tuple[]"
        }
      ],
      "stateMutability": "view",
      "type": "function"
    },
    {
      "inputs": [],
      "name": "fetchMembers",
      "outputs": [
        {
          "components": [
            {
              "internalType": "string",
              "name": "Name",
              "type": "string"
            },
            {
              "internalType": "address",
              "name": "MemeberAddress",
              "type": "address"
            },
            {
              "internalType": "uint256",
              "name": "MyId",
              "type": "uint256"
            },
            {
              "internalType": "uint256",
              "name": "MyMemes",
              "type": "uint256"
            },
            {
              "internalType": "uint256",
              "name": "MyStarredMemes",
              "type": "uint256"
            },
            {
              "internalType": "uint256",
              "name": "MyDeletedMemes",
              "type": "uint256"
            },
            {
              "internalType": "string",
              "name": "Datejoined",
              "type": "string"
            }
          ],
          "internalType": "struct MemeForest.MemeMembers[]",
          "name": "",
          "type": "tuple[]"
        }
      ],
      "stateMutability": "view",
      "type": "function"
    },
    {
      "inputs": [
        {
          "internalType": "address",
          "name": "sender",
          "type": "address"
        }
      ],
      "name": "fetchMyMeme",
      "outputs": [
        {
          "components": [
            {
              "internalType": "string",
              "name": "Memeinfo",
              "type": "string"
            },
            {
              "internalType": "address",
              "name": "Owner",
              "type": "address"
            },
            {
              "internalType": "uint256",
              "name": "fileId",
              "type": "uint256"
            },
            {
              "internalType": "bool",
              "name": "starred",
              "type": "bool"
            },
            {
              "internalType": "uint256",
              "name": "Stars",
              "type": "uint256"
            },
            {
              "internalType": "uint256",
              "name": "Likes",
              "type": "uint256"
            },
            {
              "internalType": "string",
              "name": "DateOfCreation",
              "type": "string"
            },
            {
              "internalType": "string",
              "name": "FileType",
              "type": "string"
            }
          ],
          "internalType": "struct MemeForest.MemeFiles[]",
          "name": "",
          "type": "tuple[]"
        }
      ],
      "stateMutability": "view",
      "type": "function"
    },
    {
      "inputs": [
        {
          "internalType": "address",
          "name": "sender",
          "type": "address"
        }
      ],
      "name": "fetchMyStarredMemes",
      "outputs": [
        {
          "components": [
            {
              "internalType": "string",
              "name": "Memeinfo",
              "type": "string"
            },
            {
              "internalType": "address",
              "name": "Owner",
              "type": "address"
            },
            {
              "internalType": "uint256",
              "name": "fileId",
              "type": "uint256"
            },
            {
              "internalType": "bool",
              "name": "starred",
              "type": "bool"
            },
            {
              "internalType": "uint256",
              "name": "Stars",
              "type": "uint256"
            },
            {
              "internalType": "uint256",
              "name": "Likes",
              "type": "uint256"
            },
            {
              "internalType": "string",
              "name": "DateOfCreation",
              "type": "string"
            },
            {
              "internalType": "string",
              "name": "FileType",
              "type": "string"
            }
          ],
          "internalType": "struct MemeForest.MemeFiles[]",
          "name": "",
          "type": "tuple[]"
        }
      ],
      "stateMutability": "view",
      "type": "function"
    }
  ],
  "bytecode": "0x608060405234801561001057600080fd5b506001600081905550612fad806100286000396000f3fe608060405234801561001057600080fd5b506004361061010b5760003560e01c80635ddc7b38116100a2578063bd42524a11610071578063bd42524a146102de578063d8f197b6146102fa578063e437a6f414610318578063f695687e14610334578063fe7889d4146103525761010b565b80635ddc7b381461024257806386cbee8614610260578063928721a31461027e57806395f914cd146102ae5761010b565b806334b76d8a116100de57806334b76d8a1461019657806335f1b834146101c65780633cfbb7fa146101f657806352a507c5146102265761010b565b8063059fadb51461011057806312816fc9146101405780631f9ea3d01461015c57806329a261d21461017a575b600080fd5b61012a6004803603810190610125919061259d565b61036e565b6040516101379190612aa7565b60405180910390f35b61015a600480360381019061015591906126fd565b610820565b005b61016461091f565b6040516101719190612b46565b60405180910390f35b610194600480360381019061018f91906126fd565b61092b565b005b6101b060048036038101906101ab919061259d565b610b48565b6040516101bd9190612ac9565b60405180910390f35b6101e060048036038101906101db919061259d565b610e5f565b6040516101ed9190612aeb565b60405180910390f35b610210600480360381019061020b919061259d565b610eba565b60405161021d9190612aa7565b60405180910390f35b610240600480360381019061023b91906125ca565b611396565b005b61024a61164d565b6040516102579190612b46565b60405180910390f35b610268611659565b6040516102759190612b46565b60405180910390f35b6102986004803603810190610293919061272a565b61165f565b6040516102a59190612aeb565b60405180910390f35b6102c860048036038101906102c3919061272a565b6116cc565b6040516102d59190612aeb565b60405180910390f35b6102f860048036038101906102f39190612685565b611739565b005b6103026119a2565b60405161030f9190612ac9565b60405180910390f35b610332600480360381019061032d91906126fd565b611c4e565b005b61033c611d4d565b6040516103499190612aa7565b60405180910390f35b61036c600480360381019061036791906126fd565b6120ad565b005b6060600061037c60026122ca565b9050600080600090505b82811015610462576003600060018361039f9190612c56565b815260200190815260200160002060010160009054906101000a900473ffffffffffffffffffffffffffffffffffffffff1673ffffffffffffffffffffffffffffffffffffffff168573ffffffffffffffffffffffffffffffffffffffff16141561044f576000600360006001846104179190612c56565b81526020019081526020016000206002015490506003600082815260200190815260200160002060030154925061044d816122d8565b505b808061045a90612dcd565b915050610386565b50600061046f60016122ca565b90506000808367ffffffffffffffff81111561048e5761048d612ea3565b5b6040519080825280602002602001820160405280156104c757816020015b6104b46123b0565b8152602001906001900390816104ac5790505b50905060005b83811015610812576000600760006001846104e89190612c56565b81526020019081526020016000206002015490506007600082815260200190815260200160002060010160009054906101000a900473ffffffffffffffffffffffffffffffffffffffff1673ffffffffffffffffffffffffffffffffffffffff168973ffffffffffffffffffffffffffffffffffffffff1614156107fe576000600760008381526020019081526020016000209050806040518061010001604052908160008201805461059a90612d6a565b80601f01602080910402602001604051908101604052809291908181526020018280546105c690612d6a565b80156106135780601f106105e857610100808354040283529160200191610613565b820191906000526020600020905b8154815290600101906020018083116105f657829003601f168201915b505050505081526020016001820160009054906101000a900473ffffffffffffffffffffffffffffffffffffffff1673ffffffffffffffffffffffffffffffffffffffff1673ffffffffffffffffffffffffffffffffffffffff168152602001600282015481526020016003820160009054906101000a900460ff1615151515815260200160048201548152602001600582015481526020016006820180546106bb90612d6a565b80601f01602080910402602001604051908101604052809291908181526020018280546106e790612d6a565b80156107345780601f1061070957610100808354040283529160200191610734565b820191906000526020600020905b81548152906001019060200180831161071757829003601f168201915b5050505050815260200160078201805461074d90612d6a565b80601f016020809104026020016040519081016040528092919081815260200182805461077990612d6a565b80156107c65780601f1061079b576101008083540402835291602001916107c6565b820191906000526020600020905b8154815290600101906020018083116107a957829003601f168201915b5050505050815250508486815181106107e2576107e1612e74565b5b60200260200101819052506001856107fa9190612c56565b9450505b50808061080a90612dcd565b9150506104cd565b508095505050505050919050565b600061082c60016122ca565b905060005b8181101561091a576007600060018361084a9190612c56565b815260200190815260200160002060020154831415610907576001600760006001846108769190612c56565b815260200190815260200160002060050160008282546108969190612cac565b925050819055506000600660003373ffffffffffffffffffffffffffffffffffffffff1673ffffffffffffffffffffffffffffffffffffffff168152602001908152602001600020600085815260200190815260200160002060006101000a81548160ff0219169083151502179055505b808061091290612dcd565b915050610831565b505050565b60018060000154905081565b600061093760016122ca565b9050600061094560026122ca565b905060005b82811015610a5657600760006001836109639190612c56565b815260200190815260200160002060020154841415610a435760016007600086815260200190815260200160002060030160006101000a81548160ff02191690831515021790555060016007600086815260200190815260200160002060040160008282546109d29190612cac565b925050819055506000600560003373ffffffffffffffffffffffffffffffffffffffff1673ffffffffffffffffffffffffffffffffffffffff168152602001908152602001600020600086815260200190815260200160002060006101000a81548160ff0219169083151502179055505b8080610a4e90612dcd565b91505061094a565b5060005b81811015610b425760036000600183610a739190612c56565b815260200190815260200160002060010160009054906101000a900473ffffffffffffffffffffffffffffffffffffffff1673ffffffffffffffffffffffffffffffffffffffff163373ffffffffffffffffffffffffffffffffffffffff161415610b2f57600060036000600184610aeb9190612c56565b81526020019081526020016000206002015490506001600360008381526020019081526020016000206004016000828254610b269190612cac565b92505081905550505b8080610b3a90612dcd565b915050610a5a565b50505050565b60606000610b5660026122ca565b9050600080600167ffffffffffffffff811115610b7657610b75612ea3565b5b604051908082528060200260200182016040528015610baf57816020015b610b9c61240d565b815260200190600190039081610b945790505b50905060005b83811015610e535760036000600183610bce9190612c56565b815260200190815260200160002060010160009054906101000a900473ffffffffffffffffffffffffffffffffffffffff1673ffffffffffffffffffffffffffffffffffffffff168673ffffffffffffffffffffffffffffffffffffffff161415610e4057600060036000600184610c469190612c56565b81526020019081526020016000206002015490506000600360008381526020019081526020016000209050806040518060e0016040529081600082018054610c8d90612d6a565b80601f0160208091040260200160405190810160405280929190818152602001828054610cb990612d6a565b8015610d065780601f10610cdb57610100808354040283529160200191610d06565b820191906000526020600020905b815481529060010190602001808311610ce957829003601f168201915b505050505081526020016001820160009054906101000a900473ffffffffffffffffffffffffffffffffffffffff1673ffffffffffffffffffffffffffffffffffffffff1673ffffffffffffffffffffffffffffffffffffffff16815260200160028201548152602001600382015481526020016004820154815260200160058201548152602001600682018054610d9d90612d6a565b80601f0160208091040260200160405190810160405280929190818152602001828054610dc990612d6a565b8015610e165780601f10610deb57610100808354040283529160200191610e16565b820191906000526020600020905b815481529060010190602001808311610df957829003601f168201915b505050505081525050848681518110610e3257610e31612e74565b5b602002602001018190525050505b8080610e4b90612dcd565b915050610bb5565b50809350505050919050565b600080600460008473ffffffffffffffffffffffffffffffffffffffff1673ffffffffffffffffffffffffffffffffffffffff16815260200190815260200160002060009054906101000a900460ff16905080915050919050565b60606000610ec860026122ca565b9050600080600090505b82811015610fa55760036000600183610eeb9190612c56565b815260200190815260200160002060010160009054906101000a900473ffffffffffffffffffffffffffffffffffffffff1673ffffffffffffffffffffffffffffffffffffffff168573ffffffffffffffffffffffffffffffffffffffff161415610f9257600060036000600184610f639190612c56565b815260200190815260200160002060020154905060036000828152602001908152602001600020600401549250505b8080610f9d90612dcd565b915050610ed2565b506000610fb260016122ca565b905060008267ffffffffffffffff811115610fd057610fcf612ea3565b5b60405190808252806020026020018201604052801561100957816020015b610ff66123b0565b815260200190600190039081610fee5790505b5090506000805b838110156113885760006007600060018461102b9190612c56565b815260200190815260200160002060020154905060011515600560008b73ffffffffffffffffffffffffffffffffffffffff1673ffffffffffffffffffffffffffffffffffffffff168152602001908152602001600020600083815260200190815260200160002060009054906101000a900460ff1615151480156110d75750600115156007600083815260200190815260200160002060030160009054906101000a900460ff161515145b15611374576000600760008381526020019081526020016000209050806040518061010001604052908160008201805461111090612d6a565b80601f016020809104026020016040519081016040528092919081815260200182805461113c90612d6a565b80156111895780601f1061115e57610100808354040283529160200191611189565b820191906000526020600020905b81548152906001019060200180831161116c57829003601f168201915b505050505081526020016001820160009054906101000a900473ffffffffffffffffffffffffffffffffffffffff1673ffffffffffffffffffffffffffffffffffffffff1673ffffffffffffffffffffffffffffffffffffffff168152602001600282015481526020016003820160009054906101000a900460ff16151515158152602001600482015481526020016005820154815260200160068201805461123190612d6a565b80601f016020809104026020016040519081016040528092919081815260200182805461125d90612d6a565b80156112aa5780601f1061127f576101008083540402835291602001916112aa565b820191906000526020600020905b81548152906001019060200180831161128d57829003601f168201915b505050505081526020016007820180546112c390612d6a565b80601f01602080910402602001604051908101604052809291908181526020018280546112ef90612d6a565b801561133c5780601f106113115761010080835404028352916020019161133c565b820191906000526020600020905b81548152906001019060200180831161131f57829003601f168201915b50505050508152505085858151811061135857611357612e74565b5b60200260200101819052506001846113709190612c56565b9350505b50808061138090612dcd565b915050611010565b508195505050505050919050565b600260005414156113dc576040517f08c379a00000000000000000000000000000000000000000000000000000000081526004016113d390612b26565b60405180910390fd5b60026000819055506113ee6001612371565b60006113fa60016122ca565b90506040518061010001604052808681526020018573ffffffffffffffffffffffffffffffffffffffff168152602001828152602001600015158152602001600081526020016000815260200184815260200183815250600760008381526020019081526020016000206000820151816000019080519060200190611480929190612460565b5060208201518160010160006101000a81548173ffffffffffffffffffffffffffffffffffffffff021916908373ffffffffffffffffffffffffffffffffffffffff1602179055506040820151816002015560608201518160030160006101000a81548160ff0219169083151502179055506080820151816004015560a0820151816005015560c0820151816006019080519060200190611522929190612460565b5060e082015181600701908051906020019061153f929190612460565b50905050600061154f60026122ca565b905060005b8181101561163c576003600060018361156d9190612c56565b815260200190815260200160002060010160009054906101000a900473ffffffffffffffffffffffffffffffffffffffff1673ffffffffffffffffffffffffffffffffffffffff168673ffffffffffffffffffffffffffffffffffffffff161415611629576000600360006001846115e59190612c56565b815260200190815260200160002060020154905060016003600083815260200190815260200160002060030160008282546116209190612c56565b92505081905550505b808061163490612dcd565b915050611554565b505050600160008190555050505050565b60028060000154905081565b60095481565b600080600560008473ffffffffffffffffffffffffffffffffffffffff1673ffffffffffffffffffffffffffffffffffffffff168152602001908152602001600020600085815260200190815260200160002060009054906101000a900460ff1690508091505092915050565b600080600660008473ffffffffffffffffffffffffffffffffffffffff1673ffffffffffffffffffffffffffffffffffffffff168152602001908152602001600020600085815260200190815260200160002060009054906101000a900460ff1690508091505092915050565b6002600054141561177f576040517f08c379a000000000000000000000000000000000000000000000000000000000815260040161177690612b26565b60405180910390fd5b600260008190555060001515600460003373ffffffffffffffffffffffffffffffffffffffff1673ffffffffffffffffffffffffffffffffffffffff16815260200190815260200160002060009054906101000a900460ff1615151461181a576040517f08c379a000000000000000000000000000000000000000000000000000000000815260040161181190612b06565b60405180910390fd5b6118246002612371565b600061183060026122ca565b90506040518060e001604052808481526020013373ffffffffffffffffffffffffffffffffffffffff168152602001828152602001600081526020016000815260200160008152602001838152506003600083815260200190815260200160002060008201518160000190805190602001906118ad929190612460565b5060208201518160010160006101000a81548173ffffffffffffffffffffffffffffffffffffffff021916908373ffffffffffffffffffffffffffffffffffffffff16021790555060408201518160020155606082015181600301556080820151816004015560a0820151816005015560c0820151816006019080519060200190611939929190612460565b509050506001600460003373ffffffffffffffffffffffffffffffffffffffff1673ffffffffffffffffffffffffffffffffffffffff16815260200190815260200160002060006101000a81548160ff0219169083151502179055505060016000819055505050565b606060006119b060026122ca565b90506000808267ffffffffffffffff8111156119cf576119ce612ea3565b5b604051908082528060200260200182016040528015611a0857816020015b6119f561240d565b8152602001906001900390816119ed5790505b50905060005b83811015611c4457600060036000600184611a299190612c56565b81526020019081526020016000206002015490506000600360008381526020019081526020016000209050806040518060e0016040529081600082018054611a7090612d6a565b80601f0160208091040260200160405190810160405280929190818152602001828054611a9c90612d6a565b8015611ae95780601f10611abe57610100808354040283529160200191611ae9565b820191906000526020600020905b815481529060010190602001808311611acc57829003601f168201915b505050505081526020016001820160009054906101000a900473ffffffffffffffffffffffffffffffffffffffff1673ffffffffffffffffffffffffffffffffffffffff1673ffffffffffffffffffffffffffffffffffffffff16815260200160028201548152602001600382015481526020016004820154815260200160058201548152602001600682018054611b8090612d6a565b80601f0160208091040260200160405190810160405280929190818152602001828054611bac90612d6a565b8015611bf95780601f10611bce57610100808354040283529160200191611bf9565b820191906000526020600020905b815481529060010190602001808311611bdc57829003601f168201915b505050505081525050848681518110611c1557611c14612e74565b5b6020026020010181905250600185611c2d9190612c56565b945050508080611c3c90612dcd565b915050611a0e565b5080935050505090565b6000611c5a60016122ca565b905060005b81811015611d485760076000600183611c789190612c56565b815260200190815260200160002060020154831415611d3557600160076000600184611ca49190612c56565b81526020019081526020016000206005016000828254611cc49190612c56565b925050819055506001600660003373ffffffffffffffffffffffffffffffffffffffff1673ffffffffffffffffffffffffffffffffffffffff168152602001908152602001600020600085815260200190815260200160002060006101000a81548160ff0219169083151502179055505b8080611d4090612dcd565b915050611c5f565b505050565b60606000611d5b60016122ca565b9050600081905060008267ffffffffffffffff811115611d7e57611d7d612ea3565b5b604051908082528060200260200182016040528015611db757816020015b611da46123b0565b815260200190600190039081611d9c5790505b50905060005b838110156120a357600060076000600184611dd89190612c56565b815260200190815260200160002060020154905060006007600083815260200190815260200160002090508060405180610100016040529081600082018054611e2090612d6a565b80601f0160208091040260200160405190810160405280929190818152602001828054611e4c90612d6a565b8015611e995780601f10611e6e57610100808354040283529160200191611e99565b820191906000526020600020905b815481529060010190602001808311611e7c57829003601f168201915b505050505081526020016001820160009054906101000a900473ffffffffffffffffffffffffffffffffffffffff1673ffffffffffffffffffffffffffffffffffffffff1673ffffffffffffffffffffffffffffffffffffffff168152602001600282015481526020016003820160009054906101000a900460ff161515151581526020016004820154815260200160058201548152602001600682018054611f4190612d6a565b80601f0160208091040260200160405190810160405280929190818152602001828054611f6d90612d6a565b8015611fba5780601f10611f8f57610100808354040283529160200191611fba565b820191906000526020600020905b815481529060010190602001808311611f9d57829003601f168201915b50505050508152602001600782018054611fd390612d6a565b80601f0160208091040260200160405190810160405280929190818152602001828054611fff90612d6a565b801561204c5780601f106120215761010080835404028352916020019161204c565b820191906000526020600020905b81548152906001019060200180831161202f57829003601f168201915b505050505081525050846001876120639190612cac565b8151811061207457612073612e74565b5b602002602001018190525060018561208c9190612cac565b94505050808061209b90612dcd565b915050611dbd565b5080935050505090565b60006120b960016122ca565b905060006120c760026122ca565b905060005b828110156121d857600760006001836120e59190612c56565b8152602001908152602001600020600201548414156121c55760016007600086815260200190815260200160002060030160006101000a81548160ff02191690831515021790555060016007600086815260200190815260200160002060040160008282546121549190612c56565b925050819055506001600560003373ffffffffffffffffffffffffffffffffffffffff1673ffffffffffffffffffffffffffffffffffffffff168152602001908152602001600020600086815260200190815260200160002060006101000a81548160ff0219169083151502179055505b80806121d090612dcd565b9150506120cc565b5060005b818110156122c457600360006001836121f59190612c56565b815260200190815260200160002060010160009054906101000a900473ffffffffffffffffffffffffffffffffffffffff1673ffffffffffffffffffffffffffffffffffffffff163373ffffffffffffffffffffffffffffffffffffffff1614156122b15760006003600060018461226d9190612c56565b815260200190815260200160002060020154905060016003600083815260200190815260200160002060040160008282546122a89190612c56565b92505081905550505b80806122bc90612dcd565b9150506121dc565b50505050565b600081600001549050919050565b61236e816040516024016122ec9190612b46565b6040516020818303038152906040527ff5b1bba9000000000000000000000000000000000000000000000000000000007bffffffffffffffffffffffffffffffffffffffffffffffffffffffff19166020820180517bffffffffffffffffffffffffffffffffffffffffffffffffffffffff8381831617835250505050612387565b50565b6001816000016000828254019250508190555050565b60008151905060006a636f6e736f6c652e6c6f679050602083016000808483855afa5050505050565b60405180610100016040528060608152602001600073ffffffffffffffffffffffffffffffffffffffff16815260200160008152602001600015158152602001600081526020016000815260200160608152602001606081525090565b6040518060e0016040528060608152602001600073ffffffffffffffffffffffffffffffffffffffff16815260200160008152602001600081526020016000815260200160008152602001606081525090565b82805461246c90612d6a565b90600052602060002090601f01602090048101928261248e57600085556124d5565b82601f106124a757805160ff19168380011785556124d5565b828001600101855582156124d5579182015b828111156124d45782518255916020019190600101906124b9565b5b5090506124e291906124e6565b5090565b5b808211156124ff5760008160009055506001016124e7565b5090565b600061251661251184612b86565b612b61565b90508281526020810184848401111561253257612531612ed7565b5b61253d848285612d28565b509392505050565b60008135905061255481612f49565b92915050565b600082601f83011261256f5761256e612ed2565b5b813561257f848260208601612503565b91505092915050565b60008135905061259781612f60565b92915050565b6000602082840312156125b3576125b2612ee1565b5b60006125c184828501612545565b91505092915050565b600080600080608085870312156125e4576125e3612ee1565b5b600085013567ffffffffffffffff81111561260257612601612edc565b5b61260e8782880161255a565b945050602061261f87828801612545565b935050604085013567ffffffffffffffff8111156126405761263f612edc565b5b61264c8782880161255a565b925050606085013567ffffffffffffffff81111561266d5761266c612edc565b5b6126798782880161255a565b91505092959194509250565b6000806040838503121561269c5761269b612ee1565b5b600083013567ffffffffffffffff8111156126ba576126b9612edc565b5b6126c68582860161255a565b925050602083013567ffffffffffffffff8111156126e7576126e6612edc565b5b6126f38582860161255a565b9150509250929050565b60006020828403121561271357612712612ee1565b5b600061272184828501612588565b91505092915050565b6000806040838503121561274157612740612ee1565b5b600061274f85828601612588565b925050602061276085828601612545565b9150509250929050565b60006127768383612928565b905092915050565b600061278a83836129e6565b905092915050565b61279b81612ce0565b82525050565b60006127ac82612bd7565b6127b68185612c12565b9350836020820285016127c885612bb7565b8060005b8581101561280457848403895281516127e5858261276a565b94506127f083612bf8565b925060208a019950506001810190506127cc565b50829750879550505050505092915050565b600061282182612be2565b61282b8185612c23565b93508360208202850161283d85612bc7565b8060005b85811015612879578484038952815161285a858261277e565b945061286583612c05565b925060208a01995050600181019050612841565b50829750879550505050505092915050565b61289481612cf2565b82525050565b6128a381612cf2565b82525050565b60006128b482612bed565b6128be8185612c34565b93506128ce818560208601612d37565b6128d781612ee6565b840191505092915050565b60006128ef601883612c45565b91506128fa82612ef7565b602082019050919050565b6000612912601f83612c45565b915061291d82612f20565b602082019050919050565b600061010083016000830151848203600086015261294682826128a9565b915050602083015161295b6020860182612792565b50604083015161296e6040860182612a89565b506060830151612981606086018261288b565b5060808301516129946080860182612a89565b5060a08301516129a760a0860182612a89565b5060c083015184820360c08601526129bf82826128a9565b91505060e083015184820360e08601526129d982826128a9565b9150508091505092915050565b600060e0830160008301518482036000860152612a0382826128a9565b9150506020830151612a186020860182612792565b506040830151612a2b6040860182612a89565b506060830151612a3e6060860182612a89565b506080830151612a516080860182612a89565b5060a0830151612a6460a0860182612a89565b5060c083015184820360c0860152612a7c82826128a9565b9150508091505092915050565b612a9281612d1e565b82525050565b612aa181612d1e565b82525050565b60006020820190508181036000830152612ac181846127a1565b905092915050565b60006020820190508181036000830152612ae38184612816565b905092915050565b6000602082019050612b00600083018461289a565b92915050565b60006020820190508181036000830152612b1f816128e2565b9050919050565b60006020820190508181036000830152612b3f81612905565b9050919050565b6000602082019050612b5b6000830184612a98565b92915050565b6000612b6b612b7c565b9050612b778282612d9c565b919050565b6000604051905090565b600067ffffffffffffffff821115612ba157612ba0612ea3565b5b612baa82612ee6565b9050602081019050919050565b6000819050602082019050919050565b6000819050602082019050919050565b600081519050919050565b600081519050919050565b600081519050919050565b6000602082019050919050565b6000602082019050919050565b600082825260208201905092915050565b600082825260208201905092915050565b600082825260208201905092915050565b600082825260208201905092915050565b6000612c6182612d1e565b9150612c6c83612d1e565b9250827fffffffffffffffffffffffffffffffffffffffffffffffffffffffffffffffff03821115612ca157612ca0612e16565b5b828201905092915050565b6000612cb782612d1e565b9150612cc283612d1e565b925082821015612cd557612cd4612e16565b5b828203905092915050565b6000612ceb82612cfe565b9050919050565b60008115159050919050565b600073ffffffffffffffffffffffffffffffffffffffff82169050919050565b6000819050919050565b82818337600083830152505050565b60005b83811015612d55578082015181840152602081019050612d3a565b83811115612d64576000848401525b50505050565b60006002820490506001821680612d8257607f821691505b60208210811415612d9657612d95612e45565b5b50919050565b612da582612ee6565b810181811067ffffffffffffffff82111715612dc457612dc3612ea3565b5b80604052505050565b6000612dd882612d1e565b91507fffffffffffffffffffffffffffffffffffffffffffffffffffffffffffffffff821415612e0b57612e0a612e16565b5b600182019050919050565b7f4e487b7100000000000000000000000000000000000000000000000000000000600052601160045260246000fd5b7f4e487b7100000000000000000000000000000000000000000000000000000000600052602260045260246000fd5b7f4e487b7100000000000000000000000000000000000000000000000000000000600052603260045260246000fd5b7f4e487b7100000000000000000000000000000000000000000000000000000000600052604160045260246000fd5b600080fd5b600080fd5b600080fd5b600080fd5b6000601f19601f8301169050919050565b7f596f752061726520616c72656164792061206d656d6265720000000000000000600082015250565b7f5265656e7472616e637947756172643a207265656e7472616e742063616c6c00600082015250565b612f5281612ce0565b8114612f5d57600080fd5b50565b612f6981612d1e565b8114612f7457600080fd5b5056fea26469706673582212208fe2e426328e80b27ae740366a084eddf3331f18640ba003ca8304dcd385dead64736f6c63430008070033",
  "linkReferences": {},
  "deployedLinkReferences": {}
}